:020000040800F2
:1000000000000220DD3D00086108000863080008C8
:10001000650800086708000869080008000000007B
:100020000000000000000000000000006B08000855
:100030006D080008000000006F0800087108000843
:100040002D3E00082D3E00082D3E00082D3E0008E4
:100050002D3E00082D3E00082D3E00082D3E0008D4
:100060002D3E00082D3E00082D3E00082D3E0008C4
:100070002D3E00082D3E00082D3E00082D3E0008B4
:100080002D3E00082D3E00082D3E00082D3E0008A4
:100090002D3E00082D3E00082D3E00082D3E000894
:1000A0002D3E00082D3E00082D3E00082D3E000884
:1000B0002D3E00082D3E00082D3E00082D3E000874
:1000C0002D3E00082D3E00082D3E00082D3E000864
:1000D0002D3E00082D3E00082D3E00082D3E000854
:1000E0002D3E00082D3E00082D3E00082D3E000844
:1000F0002D3E00082D3E00082D3E00082D3E000834
:100100002D3E00082D3E00082D3E00082D3E000823
:100110002D3E00082D3E00082D3E00082D3E000813
:100120002D3E00082D3E00082D3E00082D3E000803
:100130002D3E00082D3E00082D3E00082D3E0008F3
:100140002D3E00082D3E00082D3E00082D3E0008E3
:100150002D3E00082D3E00082D3E00082D3E0008D3
:100160002D3E00082D3E00082D3E00082D3E0008C3
:100170002D3E00082D3E00082D3E00080000000026
:080180002D3E00082D3E000891
:1001900010B5054C237833B9044B13B10448AFF3C1
:1001A00000800123237010BD7000002000000000BB
:1001B000B447000808B5034B1BB103490348AFF32C
:1001C000008008BD0000000074000020B447000853
:1001D000034613F8012B002AFBD1181A0138704787
:1001E00001F0FF01102A2BDB10F0070F08D010F8E8
:1001F000013B013A8B422DD010F0070F42B3F6D1EC
:10020000F0B441EA012141EA014122F007047FF004
:1002100000070023F0E80256083C85EA010586EA5B
:10022000010685FA47F5A3FA87F586FA47F6A5FA97
:1002300087F68EB9EED1F0BC01F0FF0102F00702A3
:1002400032B110F8013B013A83EA010313B1F8D14E
:100250000020704701387047002D06BF354603382F
:10026000073815F0010F07D1013015F4807F02BF68
:10027000013015F4C03F0130F0BC0138704700BFB9
:1002800053B94AB9002908BF00281CBF4FF0FF31FD
:100290004FF0FF3000F074B9ADF1080C6DE904CEF9
:1002A00000F006F8DDF804E0DDE9022304B0704751
:1002B0002DE9F047089D04468E46002B4DD18A4219
:1002C000944669D9B2FA82F252B101FA02F3C2F14C
:1002D000200120FA01F10CFA02FC41EA030E9440DD
:1002E0004FEA1C48210CBEFBF8F61FFA8CF708FBFE
:1002F00016E341EA034306FB07F199420AD91CEBD6
:10030000030306F1FF3080F01F81994240F21C8107
:10031000023E63445B1AA4B2B3FBF8F008FB10334F
:1003200044EA034400FB07F7A7420AD91CEB040484
:1003300000F1FF3380F00A81A74240F20781644454
:10034000023840EA0640E41B00261DB1D4400023D9
:10035000C5E900433146BDE8F0878B4209D9002D3D
:1003600000F0EF800026C5E9000130463146BDE8C7
:10037000F087B3FA83F6002E4AD18B4202D3824231
:1003800000F2F980841A61EB030301209E46002DE0
:10039000E0D0C5E9004EDDE702B9FFDEB2FA82F235
:1003A000002A40F09280A1EB0C014FEA1C471FFA93
:1003B0008CFE0126200CB1FBF7F307FB131140EA7A
:1003C00001410EFB03F0884208D91CEB010103F147
:1003D000FF3802D2884200F2CB804346091AA4B209
:1003E000B1FBF7F007FB101144EA01440EFB00FEDD
:1003F000A64508D91CEB040400F1FF3102D2A64542
:1004000000F2BB800846A4EB0E0440EA03409CE7E0
:10041000C6F12007B34022FA07FC4CEA030C20FA8D
:1004200007F401FA06F31C43F9404FEA1C4900FAAD
:1004300006F3B1FBF9F8200C1FFA8CFE09FB18112A
:1004400040EA014108FB0EF0884202FA06F20BD99D
:100450001CEB010108F1FF3A80F08880884240F2ED
:100460008580A8F102086144091AA4B2B1FBF9F031
:1004700009FB101144EA014100FB0EFE8E4508D92C
:100480001CEB010100F1FF346CD28E456AD90238B1
:10049000614440EA0840A0FB0294A1EB0E01A14296
:1004A000C846A64656D353D05DB1B3EB080261EB04
:1004B0000E0101FA07F722FA06F3F1401F43C5E9DE
:1004C000007100263146BDE8F087C2F12003D84014
:1004D0000CFA02FC21FA03F3914001434FEA1C4756
:1004E0001FFA8CFEB3FBF7F007FB10360B0C43EA48
:1004F000064300FB0EF69E4204FA02F408D91CEBF8
:10050000030300F1FF382FD29E422DD902386344F5
:100510009B1B89B2B3FBF7F607FB163341EA034195
:1005200006FB0EF38B4208D91CEB010106F1FF38E4
:1005300016D28B4214D9023E6144C91A46EA0046DB
:1005400038E72E46284605E70646E3E61846F8E66D
:100550004B45A9D2B9EB020864EB0C0E0138A3E7B6
:100560004646EAE7204694E74046D1E7D0467BE797
:10057000023B614432E7304609E76444023842E70F
:10058000704700BF054B064A1A6000225A609A6005
:10059000DA601A615A6104229A617047F000002003
:1005A000002C014030B589B00024039404940594D4
:1005B000069407940094194B1A6B42F001021A63D7
:1005C0001A6B02F001020092009A01941A6B42F039
:1005D00008021A631A6B02F008020192019A02944F
:1005E0001A6B42F004021A631B6B03F004030293BC
:1005F000029B0B4D22464FF44051284600F0C8FEA6
:100600004FF440530393012304930594069403A9E4
:10061000284600F0CBFD09B030BD00BF00380240D5
:10062000000C02400FB410B582B004AB53F8042B99
:1006300001930A4C6421204603F052FC2046FFF748
:10064000C7FD4FF47A7382B22146054802F049F89B
:1006500002B0BDE8104004B0704700BF8C0000201D
:100660007401002072B6FEE708B50A480A4B036021
:100670004FF4E133436000238360C36003610C22C5
:1006800042618361C36101F0FDFF00B908BDFFF75E
:10069000E9FF00BF740100200044004000B595B0A0
:1006A0003022002108A803F0E7FB00230393049302
:1006B00005930693079301931D4A116C41F08051F5
:1006C0001164126C02F080520192019A0293194A4D
:1006D000116841F480411160126802F48042029274
:1006E000029A0222089201210B9110210C910E9284
:1006F0000F93082310935023119312920423139302
:1007000008A800F02FFA78B90F230393022304936B
:10071000A023059300210691079103A800F070FC27
:1007200020B915B05DF804FBFFF79CFFFFF79AFFB7
:10073000003802400070004010B5ADF59A6D00F031
:10074000BBFE3B48FFF76EFF4FF47A7000F0E0FE0F
:10075000FFF7A4FFFFF726FFFFF714FFFFF784FF63
:1007600000F02EF901223349A8A802F0F7FF20B1CA
:1007700001463148FFF756FFFEE71AAA1BA92D488C
:1007800003F08CFA014618B12C48FFF74BFFFEE747
:100790001A9A5369023B528902FB03F11B9B03FB2C
:1007A00002F2520849082648FFF73CFF1A22254961
:1007B0001CA803F001F8014688BB2348FFF732FF6D
:1007C0000DF1040C214C0FCCACE80F0094E80700AD
:1007D000ACE803002CF8022B120C8CF8002001A8C6
:1007E000FFF7F6FC02466B4601A91CA803F0F7F8D8
:1007F000C8B900991648FFF715FF1CA803F039FA8D
:1008000000220C49104602F0A9FF4FF48051114814
:1008100000F0C4FD4FF4FA7000F07AFEF5E70E48E0
:10082000FFF700FFCCE70D48FFF7FCFEE5E700BF50
:10083000CC4700081C490008184800083048000848
:1008400048480008904800089C480008E048000814
:10085000FC480008000C0240CC4800082049000871
:10086000FEE7FEE7FEE7FEE7FEE7704770477047EA
:1008700008B500F03BFE08BD82B0002100910B4B93
:100880005A6C42F480425A645A6C02F480420092DC
:10089000009A01911A6C42F080521A641B6C03F0AA
:1008A00080530193019B02B0704700BF00380240A3
:1008B000F0B589B00023039304930593069307933F
:1008C0000268204B9A4201D009B0F0BD0024009488
:1008D00003F586335A6C42F400625A645A6C02F48F
:1008E00000620092009A01941A6B42F004021A63AB
:1008F0001A6B02F004020192019A02941A6B42F000
:1009000008021A631B6B03F008030293029B4FF467
:100910008853039302270497032606960C25079510
:100920000DEB0501084800F041FC042303930497F4
:100930000594069607950DEB0501044800F036FC7A
:10094000C2E700BF002C014000080240000C02403A
:1009500000B589B00023039304930593069307938E
:100960000268154B9A4202D009B05DF804FB0021E1
:10097000019103F5FA331A6C42F400321A641A6CCE
:1009800002F400320192019A02911A6B42F00102C4
:100990001A631B6B03F001030293029B0C23039366
:1009A00002230493032306930723079303A9034811
:1009B00000F0FCFBD8E700BF00440040000002400C
:1009C00008B50349034803F003FA034B187008BD48
:1009D000B801002038490008BC0100200020704701
:1009E00000B583B0009313460A460146034801F060
:1009F00069F900B1012003B05DF804FBF0000020AC
:100A000000B583B0009313460A460146034801F03F
:100A10007DFA00B1012003B05DF804FBF000002076
:100A200008B5034801F051FD043818BF012008BD86
:100A3000F000002008B50146014801F034FD08BD72
:100A4000F000002082B001238DF807309DF80700E8
:100A500002B0704708B5FFF7F5FF012801D001206B
:100A600008BD024801F004FDFAE700BFF0000020D5
:100A700008B5074B01221A70FFF7D2FF20B9044ACC
:100A8000137803F0FE031370014B187808BD00BF04
:100A90000000002010B50446074B01221A70FFF732
:100AA000D9FF10B1044B187810BD2046FFF7E0FFC6
:100AB000014B1870F6E700BF0000002008B5FFF7F3
:100AC000D7FF08BD08B5084611461A464FF0FF3358
:100AD000FFF786FF30B9FFF7A3FF03460028FAD1DE
:100AE000184608BD0123FBE708B5084611461A461B
:100AF0004FF0FF33FFF784FF30B9FFF791FF034654
:100B00000028FAD1184608BD0123FBE730B589B0AB
:100B1000134B187810F001041BD1154603291CD87B
:100B2000DFE801F002040A100C4613E06846FFF704
:100B300081FF069B2B600DE06846FFF77BFF079B5C
:100B40002B8007E06846FFF775FF079B5B0A2B6069
:100B500000E00324204609B030BD0424FAE700BFBA
:100B600000000020002800F0E08170B582B004464B
:100B7000036813F0010F3BD09F4B9B6803F00C03FD
:100B8000042B2CD09C4B9B6803F00C03082B21D02A
:100B90006368B3F5803F4FD0B3F5A02F52D0964B8A
:100BA0001A6822F480321A601A6822F480221A60CD
:100BB0006368002B50D000F0A5FC05468E4B1B68E7
:100BC00013F4003F14D100F09DFC401B6428F5D9BC
:100BD0000320B1E1884B5B6813F4800FD8D0864BBB
:100BE0001B6813F4003F03D06368002B00F09F8163
:100BF000236813F0020F54D07F4B9B6813F00C0F47
:100C00003ED07D4B9B6803F00C03082B33D0E36888
:100C1000002B68D0794B01221A6000F073FC054666
:100C2000754B1B6813F0020F54D100F06BFC401B96
:100C30000228F5D903207FE16F4A136843F480331B
:100C40001360B5E76C4B1A6842F480221A601A6888
:100C500042F480321A60ABE700F054FC0546664B64
:100C60001B6813F4003FC3D000F04CFC401B642809
:100C7000F5D9032060E1604B5B6813F4800FC6D1A7
:100C80005D4B1B6813F0020F03D0E368012B40F0AB
:100C90005081594A136823F0F803216943EAC103DC
:100CA0001360236813F0080F42D063696BB3534B92
:100CB0000122C3F8802E00F025FC05464E4B5B6FE9
:100CC00013F0020F34D100F01DFC401B0228F5D9AF
:100CD000032031E1484A136823F0F803216943EA0D
:100CE000C1031360DDE7454B00221A6000F00AFCE7
:100CF0000546414B1B6813F0020FD2D000F002FCF6
:100D0000401B0228F5D9032016E13C4B0022C3F812
:100D1000802E00F0F7FB0546374B5B6F13F0020F98
:100D200006D000F0EFFB401B0228F5D9032003E1B9
:100D3000236813F0040F77D02F4B1B6C13F0805FE8
:100D400033D1002301932C4B1A6C42F080521A6469
:100D50001B6C03F080530193019B0125284B1B68FA
:100D600013F4807F23D0A368012B34D0052B38D017
:100D7000214B1A6F22F001021A671A6F22F0040247
:100D80001A67A368002B3DD000F0BCFB06461A4B47
:100D90001B6F13F0020F46D100F0B4FB801B41F231
:100DA00088339842F3D90320C6E00025D6E7144AD9
:100DB000136843F48073136000F0A4FB0646104BE5
:100DC0001B6813F4807FCED100F09CFB801B0228AF
:100DD000F5D90320B0E0084A136F43F0010313670D
:100DE000CFE7054B1A6F42F004021A671A6F42F000
:100DF00001021A67C5E700BF003802400000474201
:100E00000070004000F07EFB0646524B1B6F13F053
:100E1000020F08D000F076FB801B41F28833984225
:100E2000F3D9032088E0EDB9A369002B00F083809B
:100E3000484A926802F00C02082A51D0022B17D0BF
:100E4000454B00221A6600F05DFB0446414B1B68CF
:100E500013F0007F42D000F055FB001B0228F5D9AB
:100E6000032069E03B4A136C23F080531364DBE7F3
:100E7000394B00221A6600F045FB0546354B1B68CE
:100E800013F0007F06D000F03DFB401B0228F5D98F
:100E9000032051E0E369226A1343626A43EA821342
:100EA000A26A5208013A43EA0243E26A43EA026351
:100EB000284A5360284B01221A6600F023FB04469F
:100EC000244B1B6813F0007F06D100F01BFB001BB6
:100ED0000228F5D903202FE000202DE000202BE090
:100EE000012B2BD01B4B5B6803F48001E26991421C
:100EF00026D103F03F02216A8A4223D1616A47F674
:100F0000C0721A40B2EB811F1ED103F44031A26AB5
:100F10005208013AB1EB024F18D103F07063E26A54
:100F2000B3EB026F14D1002006E0012070470120CE
:100F300002E0012000E0002002B070BD0120FBE7CC
:100F40000120F9E70120F7E70120F5E70120F3E7A9
:100F50000120F1E7003802400000474208B5254B68
:100F60009B6803F00C03042B3FD0082B3FD1214B8F
:100F70005A6802F03F025B6813F4800F12D01D4BD9
:100F80005968C1F388111C480023A1FB0001FFF739
:100F900077F9184B5B68C3F3014301335B00B0FB87
:100FA000F3F025E0134B5968C1F3881C4FEA4C114C
:100FB000B1EB0C006EEB0E0E4FEA8E1343EA90631A
:100FC0008101091A63EB0E03DB0043EA5173C90088
:100FD00011EB0C0C43F10003990200234FEA8C2023
:100FE00041EA9C51FFF74CF9D3E7034800E003487E
:100FF00008BD00BF0038024040787D010024F400A5
:10100000002800F09B8070B50D4604464F4B1B68CE
:1010100003F007038B4208D2CBB24C4A137013681B
:1010200003F007038B4240F08B80236813F0020F1C
:1010300017D013F0040F04D0454A936843F4E053EB
:101040009360236813F0080F04D0414A936843F477
:10105000604393603E4A936823F0F003A1680B431A
:101060009360236813F0010F32D06368012B21D005
:101070009A1E012A25D9364A126812F0020F61D051
:1010800033498A6822F0030213438B6000F03AFA76
:1010900006462F4B9B6803F00C036268B3EB820F8C
:1010A00016D000F02FFA801B41F288339842F0D915
:1010B000032042E0264A126812F4003FE0D10120EA
:1010C0003BE0234A126812F0007FD9D1012034E0BE
:1010D0001E4B1B6803F00703AB4207D9EAB21B4B58
:1010E0001A701B6803F00703AB422DD1236813F07D
:1010F000040F06D0164A936823F4E053E1680B43CB
:101100009360236813F0080F07D0114A936823F403
:101110006043216943EAC1039360FFF71FFF0C4B53
:101120009B68C3F303130B4AD35CD8400A4B186087
:101130000A4B186800F09AF9002070BD0120704732
:101140000120FAE70120F8E70120F6E7003C024021
:10115000003802404C49000808000020040000202C
:10116000014B1868704700BF0800002008B5FFF762
:10117000F7FF044B9B68C3F38223034AD35CD84038
:1011800008BD00BF003802405C49000808B5FFF701
:10119000E7FF044B9B68C3F34233034AD35CD84058
:1011A00008BD00BF003802405C49000800230F2B37
:1011B00000F2E48070B582B060E085685E000324D0
:1011C000B44025EA0405CC68B4402C4384604568EB
:1011D00025EA02054C68C4F300129A402A43426093
:1011E0005AE0DC08083450F8246003F00702950048
:1011F0000F22AA4026EA020E0A69AA4042EA0E021B
:1012000040F824205CE0072200E0002202FA0EF2FF
:101210002A4302345A4D45F824205A4A94686FEA0A
:101220000C0224EA0C054E6816F4801F01D04CEA2B
:101230000405544CA560E46802EA04054E6816F4FF
:10124000001F01D04CEA04054E4CE560646802EAD8
:1012500004054E6816F4003F01D04CEA0405494CE1
:101260006560246822404D6815F4803F01D04CEA47
:101270000402444C226001330F2B7DD801229A4096
:101280000C6804EA020C32EA0404F4D14C6804F05D
:101290000304013C012C90D94A6802F00302032A9E
:1012A00009D0C4685D000322AA4024EA02048A68C7
:1012B000AA402243C2604A6802F00302022A90D088
:1012C00004684FEA430E032202FA0EF224EA0204F3
:1012D0004A6802F0030202FA0EF2224302604A68F0
:1012E00012F4403FC7D000220192274A546C44F4C4
:1012F00080445464526C02F480420192019A9C082A
:10130000A51C1F4A52F8255003F003024FEA820E33
:101310000F2202FA0EF225EA02051C4A90423FF41F
:1013200074AF02F5806290421AD002F5806290425A
:1013300018D002F58062904216D002F58062904289
:1013400014D002F58062904212D002F58062904281
:1013500010D002F5806290423FF455AF082255E765
:10136000012253E7022251E703224FE704224DE70F
:1013700005224BE7062249E702B070BD704700BF67
:1013800000380140003C01400038024000000240AB
:101390000AB181617047090481617047436901EABC
:1013A000030221EA030141EA024181617047000022
:1013B000074AD36823F4E0631B041B0C000200F40B
:1013C000E060034343F0BF6343F40033D3607047EE
:1013D00000ED00E000B5194BDB68C3F30223C3F155
:1013E000070CBCF1040F28BF4FF0040C03F1040EEE
:1013F000BEF1060F18D9033B4FF0FF3E0EFA0CFC6E
:1014000021EA0C0199400EFA03F322EA030319437F
:1014100000280BDB0901C9B200F1604000F5614012
:1014200080F800135DF804FB0023E5E700F00F00EF
:101430000901C9B2024B1954F4E700BF00ED00E006
:1014400014ED00E00138B0F1807F0BD24FF0E023C3
:101450005861054AF02182F8231000209861072284
:101460001A6170470120704700ED00E010B5044696
:101470000E4B18784FF47A73B3FBF0F30C4A1068F4
:10148000B0FBF3F0FFF7DEFF68B90F2C01D90120A4
:101490000AE0002221464FF0FF30FFF79BFF054B8B
:1014A0001C60002000E0012010BD00BF01000020F2
:1014B000080000200400002008B50B4B1A6842F415
:1014C00000721A601A6842F480621A601A6842F464
:1014D00080721A600320FFF76BFF0F20FFF7C6FF33
:1014E000FFF7CAF9002008BD003C0240034A11681A
:1014F000034B1B780B441360704700BFC0010020F2
:1015000001000020014B1868704700BFC001002097
:1015100038B50446FFF7F6FF0546B4F1FF3F02D0A9
:10152000044B1B781C44FFF7EDFF401BA042FAD38D
:1015300038BD00BF010000200B4B1B680B4AA2FB0B
:1015400003235B0A41F2883202FB03F31A46013B94
:101550003AB1426B12F0800FF8D0C52383630020AC
:1015600070474FF00040704708000020D34D6210D4
:1015700084B00DF1040C8CE80E000B461343039A63
:101580001343049A1343059A1343069A134342687C
:1015900022F4FD4222F07F0213434360002004B096
:1015A0007047D0F8800070470B68C0F8803000208A
:1015B00070470323036000207047006800F00300B9
:1015C00070470B6883604B688A681343CA6813438B
:1015D0000A691343C26822F47F6222F00F021343A8
:1015E000C360002070470069C0B270471430405893
:1015F00070470B6843624B6883628B68CA68134309
:101600000A6913434A691343C26A22F0F70213437B
:10161000C3620020704710B586B0044600230193D2
:101620000293039304934FF48063059301A9FFF79A
:10163000C8FF2046FFF780FF06B010BD38B504464E
:101640000D46504B1B685049A1FB03135B0A03FB7B
:1016500002F21346013A002B5DD0636B13F0450F85
:10166000F7D013F4006FF4D1636B13F0040F06D1BD
:10167000636B13F0010F05D00120A0634DE004203F
:10168000A0634AE0C523A3632046FFF7ACFFA8424E
:1016900001D0012041E000212046FFF7A7FF0346CB
:1016A0003A481840C8B3002B38DB13F0804F38D1CC
:1016B00013F0005F37D113F0805F36D113F0006F65
:1016C00036D113F0806F36D113F0807F36D113F40A
:1016D000000F36D113F4800F36D113F4001F36D12A
:1016E00013F4801F36D113F4802F36D113F4003F4A
:1016F00036D113F4803F36D113F4004F36D113F4B2
:10170000804F36D113F4005F36D113F0080F36D076
:101710004FF4000001E04FF0004038BD4FF0007082
:10172000FBE74020F9E78020F7E74FF48070F4E70B
:101730004FF40070F1E74FF48060EEE74FF4006083
:10174000EBE74FF48050E8E74FF40050E5E74FF443
:101750008040E2E74FF40040DFE74FF40030DCE781
:101760004FF48020D9E74FF40020D6E74FF48010E3
:10177000D3E74FF40010D0E74FF48000CDE74FF4EB
:101780008030CAE708000020D34D621008E0FFFD5A
:1017900030B587B00446019110250295402303938C
:1017A000002304934FF48063059301A9FFF709FF19
:1017B00041F2883229462046FFF740FF07B030BD8E
:1017C00030B587B00446019111250295402303935B
:1017D000002304934FF48063059301A9FFF7F1FE02
:1017E00041F2883229462046FFF728FF07B030BD76
:1017F00030B587B00446019112250295402303932A
:10180000002304934FF48063059301A9FFF7D9FEE9
:1018100041F2883229462046FFF710FF07B030BD5D
:1018200030B587B0044601911825029540230393F3
:10183000002304934FF48063059301A9FFF7C1FED1
:1018400041F2883229462046FFF7F8FE07B030BD46
:1018500030B587B0044601911925029540230393C2
:10186000002304934FF48063059301A9FFF7A9FEB9
:1018700041F2883229462046FFF7E0FE07B030BD2E
:1018800030B587B00446002301930C250295402211
:10189000039204934FF48063059301A9FFF791FE2F
:1018A000034A29462046FFF7C9FE07B030BD00BFF6
:1018B00000E1F50530B587B0044601920725029591
:1018C00040230393002304934FF48063059301A9FD
:1018D000FFF777FE41F2883229462046FFF7AEFE39
:1018E00007B030BD30B587B0044601913725029569
:1018F00040230393002304934FF48063059301A9CD
:10190000FFF75FFE41F2883229462046FFF796FE38
:1019100007B030BD30B587B0044601910D25029562
:1019200040230393002304934FF48063059301A99C
:10193000FFF747FE41F2883229462046FFF77EFE38
:1019400007B030BD0146144B1B68144AA2FB0323A9
:101950005B0A41F2883202FB03F31A46013BBAB13B
:101960004A6B12F0450FF8D012F4006FF5D14B6BB3
:1019700013F0040F06D1486B10F0010005D1C52308
:101980008B63704704208863704701208863704729
:101990004FF00040704700BF08000020D34D621098
:1019A00010B586B004460023019302220292C022A1
:1019B000039204934FF48063059301A9FFF701FE9E
:1019C0002046FFF7BFFF06B010BD10B586B0044635
:1019D000019109230293C0230393002304934FF43E
:1019E0008063059301A9FFF7ECFD2046FFF7AAFFEE
:1019F00006B010BD0146104B1B68104AA2FB032322
:101A00005B0A41F2883202FB03F31A46013B82B1C2
:101A10004A6B12F0450FF8D012F4006FF5D1486B05
:101A200010F0040002D1C5238B6370470420886343
:101A300070474FF00040704708000020D34D6210FF
:101A400010B586B0044641F0004141F48011019187
:101A50002923029340230393002304934FF48063CC
:101A6000059301A9FFF7ADFD2046FFF7C3FF06B0C0
:101A700010BD0000F8B505460E461746234B1B68FF
:101A8000234AA2FB03235B0A41F2883202FB03F3E1
:101A90001A46013B8AB36C6B14F0450FF8D014F46E
:101AA000006FF5D16B6B13F0040F06D16B6B13F065
:101AB000010F05D00120A86321E00420A8631EE0E7
:101AC0002846FFF790FDB04201D0012017E0C52362
:101AD000AB6300212846FFF789FD034610F4604000
:101AE00008D013F4804F0BD113F4004F0BD04FF4F8
:101AF000805004E01B0C3B8001E04FF00040F8BD3B
:101B00004FF40050FBE74FF48030F8E70800002066
:101B1000D34D621070B586B004460D460023019384
:101B2000032602964022039204934FF480630593A8
:101B300001A9FFF746FD2A4631462046FFF79AFFE6
:101B400006B070BD0146164B1B68164AA2FB032364
:101B50005B0A41F2883202FB03F31A46013BE2B111
:101B60004A6B12F0450FF8D012F4006FF5D14B6BB1
:101B700013F0040F0BD14B6B13F001030AD1486B28
:101B800010F040000BD040228A63184670470420B2
:101B9000886370470120886370474FF000407047AA
:101BA00008000020D34D621010B586B004464FF4F3
:101BB000D5730193082302934023039300230493D6
:101BC0004FF48063059301A9FFF7FBFC2046FFF764
:101BD000B9FF06B010BD000070B582B00446002306
:101BE00001930068FFF717FD054610B1284602B0C3
:101BF00070BD2068FFF7D8FF38B90123A364A36C38
:101C0000012B0BD02E46284614E00023A364206845
:101C1000FFF701FD0028F2D00546E7E70021206824
:101C2000FFF760FE0028EDD04FF08055DEE7019B06
:101C300001330193019A4FF6FE739A4213D896B975
:101C400000212068FFF74EFEE0B912492068FFF737
:101C5000F7FE0646C0B900212068FFF7C7FCC30F96
:101C6000E5D01E46E3E7019A4FF6FE739A420ED87E
:101C700010F0804302D001236364B7E7002262645E
:101C80001D46B3E70546B1E74FF08055AEE74FF08C
:101C90008075ABE7000010C170B581B104460E46F7
:101CA000016D09040068FFF735FE054608B12846B6
:101CB00070BD00212068FFF799FC3060F7E74FF016
:101CC0000065F4E72DE9F04F87B005460C4616464F
:101CD0009B46DDF840A0FFF715FC002C36D081466E
:101CE00095F83470FFB2012F40F005810023AB63FB
:101CF00006EB0B03EA6D93422ED8032385F83430AC
:101D00002B680022DA626B6C012B00D076024FF058
:101D1000FF3300934FEA4B23019390230293022356
:101D20000393002304930123059369462868FFF772
:101D300060FCBBF1010F14D902232B6331462868E4
:101D4000FFF756FDA0B9DDF8048038E0AB6B43F037
:101D50000063AB630127D3E0AB6B43F00073AB636D
:101D6000CEE001232B6331462868FFF729FDE9E720
:101D70002B68654A9A63AB6B1843A863012385F807
:101D8000343000232B63BBE02868FFF70AFC207087
:101D9000C0F307236370C0F30743A370000EE07025
:101DA0000434A8F104080136072EEDD9FFF7AAFB89
:101DB000A0EB0900504510D2BAF1000F0DD02868F1
:101DC000466B40F22A331E4015D1436B13F4004F8B
:101DD000ECD0B8F1000FE9D0E6E72B684A4A9A63E5
:101DE000AB6B43F00043AB63012385F83430002331
:101DF0002B63032784E0436B13F4807F05D0BBF192
:101E0000010F02D96B6C032B38D12B685A6B12F07F
:101E1000080F44D15A6B12F0020F4CD15A6B12F0DA
:101E2000200F54D12868436B13F4001F5BD0B8F126
:101E3000000F58D0FFF7B5FB2070C0F30723637085
:101E4000C0F30743A370000EE0700434A8F1040847
:101E5000FFF758FBA0EB0900504502D2BAF1000F82
:101E6000E0D12B68284A9A63AB6B43F00043AB6325
:101E7000012385F8343000232B6341E0FFF700FD98
:101E800003460028C1D02A681F499163AA6B1343F7
:101E9000AB63012385F8343000232B6330E01A4A0A
:101EA0009A63AB6B43F00803AB63012385F83430CE
:101EB00000232B6324E0144A9A63AB6B43F00203C4
:101EC000AB63012385F8343000232B6318E00E4AFE
:101ED0009A63AB6B43F02003AB63012385F8343086
:101EE00000232B630CE040F23A538363012385F80F
:101EF0003430002704E0AB6B43F00053AB630127A1
:101F0000384607B0BDE8F08FFF0540002DE9F04FDF
:101F10008BB005460C4616469B46DDF850A0FFF7F1
:101F2000F1FA002C37D0804695F83470FFB2012FBB
:101F300040F0E2800023AB6306EB0B03EA6D9342B3
:101F40002FD8032385F834302B680022DA626B6CBB
:101F5000012B00D076024FF0FF3304934FEA4B235E
:101F60000593902306930023079308930123099375
:101F700004A92868FFF73DFBBBF1010F16D9202308
:101F80002B6331462868FFF763FC0190019BABB9D6
:101F9000DDF8149040E0AB6B43F00063AB630127C6
:101FA000AFE0AB6B43F00073AB63AAE010232B638D
:101FB00031462868FFF734FC0190E7E72B68534A65
:101FC0009A63A86B019B1843A863012385F83430FA
:101FD00000232B6395E023780393627843EA02237E
:101FE0000393A27843EA02430393E27843EA02634D
:101FF00003930434A9F1040903A92868FFF7D4FA6C
:102000000136072EE7D9FFF77DFAA0EB080050450F
:1020100010D2BAF1000F0DD02868466B40F21A3387
:102020001E4015D1436B13F4804FECD0B9F1000F73
:10203000E9D0E6E72B68354A9A63A86B019B184301
:10204000A863012385F8343000232B63032758E06D
:10205000436B13F4807F05D0BBF1010F02D96B6C89
:10206000032B18D12B685A6B12F0080F24D15A6B2E
:1020700012F0020F2CD15A6B12F0100F34D0234AF9
:102080009A63AB6B43F01003AB63012385F83430E4
:1020900000232B6335E0FFF7F3FB03460028E1D074
:1020A0002A681A499163AA6B1343AB63012385F82D
:1020B000343000232B6324E0144A9A63AB6B43F063
:1020C0000803AB63012385F8343000232B6318E049
:1020D0000E4A9A63AB6B43F00203AB63012385F8AE
:1020E000343000232B630CE040F23A529A63012310
:1020F00085F83430002704E0AB6B43F00053AB634A
:10210000012738460BB0BDE8F08F00BFFF05400047
:10211000436E9B0F0B70436EC3F383634B7090F859
:10212000673003F003038B7090F86630CB7090F843
:1021300065300B7190F864304B71836E1B0DCB8052
:10214000B0F86A3003F00F030B72836EC3F3C03331
:102150004B72836EC3F380338B72836EC3F3403351
:10216000CB72836EC3F300330B7300234B73436C4A
:10217000002B40F08680826E40F6FC7303EA8203F7
:10218000C26E43EA92730B61C36EC3F3C2630B75F5
:1021900090F86F3003F007034B75C36EC3F34253DF
:1021A0008B75C36EC3F38243CB75C36EC3F3C23367
:1021B0000B760B69013343650A7E02F00702023297
:1021C000934043650A7A02F00F0C012202FA0CF2E6
:1021D0008265520A02FB03F3C3654FF40073036682
:1021E000C36EC3F380334B76C36EC3F3C6138B76D3
:1021F000C36E03F07F03CB76036FDB0F0B77036FA8
:10220000C3F341734B77036FC3F382638B77036F21
:10221000C3F38353CB77036FC3F3405381F820306C
:10222000002381F82130B0F8722002F0010281F819
:102230002220026FC2F3C03281F82320026FC2F362
:10224000803281F82420026FC2F3403281F82520C9
:10225000026FC2F3003281F82620026FC2F381229E
:1022600081F82720026FC2F3012281F82820026F33
:10227000C2F3460281F82920012281F82A2018465B
:102280007047012B11D1836E1B0403F47C13B0F84B
:102290006E2013430B610B6901339B024365C365D9
:1022A0004FF40073836503669AE70368054A9A63EF
:1022B000836B43F080538363012380F834301846E6
:1022C000704700BFFF05400070B590B00446012381
:1022D000ADF812300068FFF770F900286CD0636C1D
:1022E000032B45D1636C032B5DD1636C032B1DD095
:1022F000BDF81210216509042068FFF766FB05464A
:1023000000285BD100212068FFF770F96066042186
:102310002068FFF76BF9A06608212068FFF766F9CF
:10232000E0660C212068FFF761F92067042120682E
:10233000FFF75CF9000DE06405A92046FFF7E8FE11
:1023400000283ED1226D120400232068FFF7B2FA64
:10235000054698BB234653F8106B93E807008DE8B9
:102360000700043494E80E003046FFF701F925E039
:102370002068FFF715FB054600BB00212068FFF72A
:1023800035F9606704212068FFF730F9A06708215C
:102390002068FFF72BF9E0670C212068FFF726F98A
:1023A000C4F880009EE70DF112012068FFF7B2FB30
:1023B0000546002899D001E04FF08065284610B00E
:1023C00070BD4FF08055F9E770B58AB00446002320
:1023D00004930593069307930893762309930AAB16
:1023E00013E907008DE8070004AB0ECB2068FFF768
:1023F000BFF818B1012528460AB070BD05461A4E2F
:102400000023C6F8A0302068FFF7D3F80123C6F8F0
:10241000A0300220FFF77CF82046FFF7DDFB30B14B
:10242000012584F83450A36B0343A363E3E72046FC
:10243000FFF74AFF30B1012584F83450A36B034302
:10244000A363D8E74FF400712068FFF7A1F90028D3
:10245000D1D0236805499963A36B0343A363012586
:1024600084F83450C7E700BF00802542FF054000D4
:10247000A8B110B5044690F8343063B1032384F852
:1024800034302046FFF7A0FF58B9A0632063012332
:1024900084F8343010BD0377FEF70AFAEEE7012026
:1024A00070470120F6E7436C0B60836C4B60C36C94
:1024B0008B60036DCB60436D0B61836D4B61C36DAE
:1024C0008B61036ECB610020704710B582B004466B
:1024D0000023019301A9FFF7DFFB10B1A36B0343B6
:1024E000A3630198C0F3432002B010BD38B5044681
:1024F0000268136923F44053C1680B431361836876
:102500000269134342691343C2691A430168CB68E5
:1025100023F4164323F00C031343CB600268536982
:1025200023F4407381690B4353610368314A93423A
:1025300006D002F58062934202D0FEF717FE01E05A
:10254000FEF724FEE369B3F5004F29D000210318FC
:1025500049411B1841F10001C90041EA5371DB00F8
:10256000181863684FEA83024FEA937341F1000140
:10257000FDF786FE204DA5FB00325109642303FBC5
:1025800011031B013233A5FB03235B0903F0F002A7
:1025900002EB011203F00F03216813448B6038BD76
:1025A0000023021843EB0301121841F10001C90096
:1025B00041EA5271D200101841F10001626892188C
:1025C0005B41FDF75DFE0C4DA5FB00325109642314
:1025D00003FB1103DB003233A5FB03235B095A0025
:1025E00002F4F87202EB011203F0070321681344AE
:1025F0008B60D4E7001001401F85EB512DE9F843B3
:1026000005460F4616469946DDF820802C6824685A
:1026100037EA04030CBF4FF0010C4FF0000CB44537
:102620002DD1B8F1FF3FF1D0B8F1000F05D0FEF782
:1026300069FFA0EB09004045E8D92A6802F10C03C4
:1026400053E8003F23F4D0730C3242E800310029F4
:10265000F3D12A6802F1140353E8003F23F0010389
:10266000143242E800310029F3D1202385F83D30AF
:1026700085F83E30002385F83C30032000E0002040
:10268000BDE8F88358B310B5044690F83D300BB35D
:10269000242384F83D302268D36823F40053D360A8
:1026A0002046FFF723FF2268136923F49043136148
:1026B0002268536923F02A0353612268D36843F4E4
:1026C0000053D36000202064202384F83D3084F838
:1026D0003E3010BD80F83C30FEF73AF9D8E70120D3
:1026E00070472DE9F04182B01E4690F83D30DBB2D4
:1026F000202B54D104460D469046002953D0002A81
:1027000053D090F83C30012B51D0012380F83C305D
:1027100000230364212380F83D30FEF7F3FE0746D3
:10272000A4F82480A4F82680A368B3F5805F05D0C0
:102730004FF00008002384F83C3012E0236913B105
:102740004FF00008F6E7A8460025F3E738F8023B0B
:102750002268C3F308035360E28C92B2013A92B24A
:10276000E284E38C9BB273B100963B460022802149
:102770002046FFF743FFE0B9002DE7D015F8012B05
:1027800023685A60E8E700963B4600224021204635
:10279000FFF734FF78B9202384F83D3000E00220B1
:1027A00002B0BDE8F0810120FAE70120F8E702203D
:1027B000F6E70320F4E70320F2E70000034AD2F82B
:1027C000883043F47003C2F88830704700ED00E0B1
:1027D00008B5044B03EB8002526852680344187A30
:1027E000904708BDEC01002008B5084B1B5C53B9AD
:1027F000064B01221A5403EB8002526812681844F7
:10280000007A904708BD0020FCE700BFEC010020E3
:1028100038B5044C04EB80056D68AD680444207A3B
:10282000A84738BDEC01002038B5044C04EB800506
:102830006D68ED680444207AA84738BDEC0100209B
:1028400010B5044B03EB8004646824690344187AD0
:10285000A04710BDEC0100204278007840EA022039
:102860007047C278837843EA0222437843EA02231E
:10287000007840EA032070470170090A41707047F0
:102880000170C1F307234370C1F307438370090E3E
:10289000C1707047944632B10A780131027001303C
:1028A000BCF1010CF8D1704701700130013AFBD145
:1028B000704784469CF800000CF1010C0B78013144
:1028C000C01A013A01D00028F4D07047034600E056
:1028D0000133187808B18842FAD1704730B4002526
:1028E0002B4601E001250133012B15D81A01174CA5
:1028F000A258002AF6D00468A242F4D1134A02EB8F
:102900000312546882689442EDD1104A02EB03121C
:10291000946842699442E6D1022B0AD0A1B90B4ACD
:1029200002EB03139B89B3F5807F0BD0002030BCF2
:1029300070472DB9022901D01220F8E70020F6E7F0
:102940000020F4E71020F2E71020F0E7C801002093
:10295000002000E00130012804D80301034AD358C5
:10296000002BF7D1023818BF01207047C8010020A2
:1029700070B4002300E00133012B13D81A01244C5A
:10298000A45802689442F6D1214A02EB031254681B
:1029900082689442EFD11E4A02EB031294684269A6
:1029A0009442E8D1022B0DD021B1194A02EB031257
:1029B000928952BBF1B9164A02EB03129189013197
:1029C00089B219E00023012B05D81A01104CA25836
:1029D0000AB10133F7E7022B15D00D4D1C0105EBB1
:1029E000031206682E51846854604069906000208C
:1029F0009081D9E74FF48071054A02EB031291816F
:102A0000581C70BC70470020FBE70020F9E700BFAE
:102A1000C80100200138012815D80D4B03EB001325
:102A20009B89B3F5807F03D01BB1013B9BB200E0D3
:102A30000023074A02EB0012938133B903010020FF
:102A4000034AD0507047022070470020704700BFF3
:102A5000C8010020002303E05DF8044B70470133F8
:102A6000012B11D81A0109498A588242F7D110B4B2
:102A70001A0100248C500133012BEDD81A010349AF
:102A80008A588242F7D1F3E7704700BFC80100209F
:102A900002394369023B8B4204D94389806A01FBB6
:102AA00003007047002070470268C36A0433490A74
:102AB0005289B1FBF2F101E0091A0833186818B124
:102AC0008142F9D258680844704770B506460D46F1
:102AD00001F11A00FFF7C0FE3378032B00D070BD60
:102AE000044605F11400FFF7B7FE44EA0040F6E79C
:102AF00070B506460C46154691B204F11A00FFF770
:102B0000BBFE3378032B00D070BD290C04F11400F8
:102B1000FFF7B2FEF8E700002DE9F84F81468A463C
:102B20000F6800F1240B0B2220215846FFF7BCFE52
:102B3000002633464FF008082CE001357B5D2F2B33
:102B4000FBD05C2BF9D03D44CAF80050002E43D096
:102B500099F82430E52B35D0202C37D8042389F878
:102B60002F30002028E008264FF00B0811E014F069
:102B7000800F23D121461948FFF7A8FE50BBA4F1CE
:102B80006103DBB2192B01D8203CE4B20BF80640FC
:102B900001362B465D1CFC5C202CD4D92F2CCDD0CB
:102BA0005C2CCBD02E2C01D0B045E0D8B8F10B0F67
:102BB0000ED02E2CD7D00620BDE8F88F803C084BD5
:102BC0001C5DD7E7052389F82430C5E70023C6E755
:102BD0000620F1E70620EFE70620EDE7644900084C
:102BE000744900080146006838B102461378202B6A
:102BF00006D93A2B04D00132F8E74FF0FF30704786
:102C00003A2B01D00020704710B4034613F8010B93
:102C10003038092808D89A4202D04FF0FF3005E03A
:102C200038B901320A6001E04FF0FF305DF8044B23
:102C300070474FF0FF30F9E738B50D46044698B1BC
:102C400003689BB11A78A2B18188DA88914203D0D7
:102C5000092000242C6038BD5878FFF7B9FD10F02A
:102C6000010009D12468F5E70920F3E71C46092093
:102C7000F0E709200024EDE709200024EAE72DE928
:102C8000F041C57815B92846BDE8F0810446C76A09
:102C900000F1300801233A4641464078FFF7C4FD71
:102CA0000546A0B90023E370236AFB1AA269934288
:102CB000E9D2A67808E0A3691F4401233A464146B9
:102CC0006078FFF7B1FD013E012EF4D8DBE7012566
:102CD000D9E770B5C36A8B4202D10026304670BD79
:102CE00004460D46FFF7CBFF06460028F6D1012328
:102CF0002A4604F130016078FFF78AFD10B1012601
:102D00004FF0FF35E562E9E738B504460023C370AC
:102D10004FF0FF33C362FFF7DCFF30BB054604F220
:102D20002E20FFF799FD4AF6552398421FD194F8BB
:102D30003030E92B07D0236B03F0FF130D4A934289
:102D400001D0022514E004F16600FFF78AFD20F0AF
:102D50007F40094B98420BD004F18200FFF781FDC0
:102D6000064B984204D0022502E0042500E003252A
:102D7000284638BDEB00900046415400464154338C
:102D80002DE9F04F85B00D46164600230B60FFF786
:102D900029FF071EC0F24481B54B53F82740002C91
:102DA00000F043812C6006F0FE06237873B1607852
:102DB000FFF70EFD10F0010508D1002E00F0318163
:102DC00010F0040F00F02D810A252AE10023237062
:102DD000F8B26070FFF708FD10F0010540F02781A0
:102DE0001EB110F0040F40F0248100212046FFF7AF
:102DF0008BFF022800F0B6800027042800F01B811A
:102E0000012800F21A8104F13B00FFF725FDB0F51F
:102E1000007F40F0148104F14600FFF71DFD0646D7
:102E200020B904F15400FFF71CFD0646A66194F892
:102E30004020A270531EDBB2012B00F2028106FB80
:102E400002F894F83D90A4F80A90B9F1000F00F050
:102E5000FA8009F1FF3319EA030F40F0F68004F11C
:102E60004100FFF7F9FC8246208110F00F0F40F07F
:102E7000EE8004F14300FFF7EFFC834620B904F134
:102E80005000FFF7EEFC834604F13E00FFF7E4FC40
:102E90000246002800F0DD8000EB080303EB1A1364
:102EA0009B45C0F0D880ABEB030BBBFBF9F1CB45E6
:102EB000C0F0D3804FF6F57081426BD94FF0030B11
:102EC00040F6F570814201D84FF0010B01F1020983
:102ED000C4F81490E7613A4422623B44A362BBF118
:102EE000030F5AD0BAF1000F00F0BD804244626275
:102EF000BBF1020F62D009EB490309F0010909EBAC
:102F0000530909F2FF19B6EB592FC0F0AE804FF00C
:102F1000FF332361E36080232371BBF1030F50D0A3
:102F200084F800B0534A138801339BB21380E380C6
:102F30002046FFF78FFD74E0002004AB03EB86030F
:102F400043F8100C0136032E0ED804F13000330183
:102F500003F5DF7318440379002BEDD00830FFF739
:102F600080FCEAE70026EEE700260AE03946204624
:102F7000FFF7CAFE01287FF640AF0136032E3FF669
:102F80003CAF04AB03EB860353F8107C002FEDD16C
:102F90000320F2E74FF0020B92E704F15A00FFF72B
:102FA0005BFC00285BD1BAF1000F5AD104F15C0040
:102FB000FFF757FC60624FEA8909A2E74FEA490927
:102FC0009FE704F16000FFF747FC0128A8D1791CB6
:102FD0002046FFF77EFE0028A2D10023237104F2D1
:102FE0002E20FFF739FC4AF65523984298D104F178
:102FF0003000FFF736FC204B984291D104F5057064
:10300000FFF72FFC1D4B98428AD104F50670FFF79D
:1030100028FC206104F50770FFF723FCE0607FE7E0
:103020000B25284605B0BDE8F08F0C25F9E70325F0
:10303000F7E70A25F5E70125F3E70D25F1E70D256B
:10304000EFE70D25EDE70D25EBE70D25E9E70D256C
:10305000E7E70D25E5E70D25E3E70D25E1E70D257C
:10306000DFE70D25DDE70D25DBE70D25D9E700BFFF
:10307000C4010020E8010020525261417272416196
:103080002DE9F04701297ED907460C4616464369CB
:103090008B427AD90378022B45D0032B57D0012BD2
:1030A00003D002252846BDE8F08701EB5108016AEC
:1030B00001EB5821FFF70DFE05460028F2D107F17C
:1030C000300A08F10109C8F3080814F001041FD000
:1030D0001AF9083003F00F03320102F47F62134340
:1030E000DBB20AF808300123FB70396A01EB592181
:1030F0003846FFF7EEFD05460028D3D1C9F308098D
:1031000044B1C6F307120AF809200123FB70C9E78E
:10311000F3B2E6E71AF9092022F00F02C6F30326FC
:103120003243D2B2EFE7016A01EB1421FFF7D1FD80
:1031300005460028B6D107F13000640004F4FF749E
:10314000B1B22044FFF798FB0123FB70AAE7016AA4
:1031500001EBD411FFF7BDFD05460028A2D126F0F2
:10316000704607F13003A40004F4FE741C442046AA
:10317000FFF777FB00F0704131432046FFF780FBFB
:103180000123FB708EE702258CE702258AE7F8B55C
:103190000568012956D90C466B698B4254D92B78A6
:1031A000022B2DD0032B3BD0012B01D001204AE074
:1031B00001EB5106296A01EB56212846FFF789FDEC
:1031C00010B14FF0FF303EE0771CC6F308062E44E6
:1031D00096F83060296A01EB57212846FFF779FD00
:1031E000A0BBC7F308073D4495F8300046EA00202D
:1031F00014F0010F01D0000925E0C0F30B0022E01C
:10320000296A01EB14212846FFF763FD08BB05F18D
:103210003000640004F4FF742044FFF71DFB12E04B
:10322000296A01EBD4112846FFF753FDA0B905F137
:103230003000A40004F4FE742044FFF712FB20F0D9
:10324000704000E00120F8BD0120FCE74FF0FF30A6
:10325000F9E74FF0FF30F6E74FF0FF30F3E72DE9E5
:10326000F041D0F80080B1F5001F40D206460F466D
:1032700011F01F0F3DD1416184682CB998F80030DE
:10328000022B01D9D8F82440B4B9B8F80830B3EB10
:10329000571F30D9D8F82430F361B461F36993B380
:1032A00003EB5723F36108F13003C7F30801194416
:1032B00031620020BDE8F081B8F80A506D02AF42DB
:1032C0000FD321463046FFF762FF0446B0F1FF3FBF
:1032D00013D0012813D9D8F81430834211D97F1B99
:1032E000EDE721464046FFF7D3FBF061D5E702202A
:1032F000E0E70220DEE70220DCE70120DAE7022037
:10330000D8E70220D6E70220D4E72DE9F0410546B0
:1033100006680F4651B9D6F80C80B8F1000F12D0EC
:103320007369434511D84FF001080EE0FFF72FFFF6
:103330000346012847D9B0F1FF3F49D07269824264
:1033400046D8B84601E04FF0010844460CE021465B
:103350002846FFF71CFF034678B1012838D0B0F1AA
:10336000FF3F35D0444532D001347369A342EED8D3
:10337000B8F1010F29D90224E9E74FF0FF322146C5
:103380003046FFF77DFE034600B977B9A3B9F46074
:1033900032697369023B9A4201D8013A326133794A
:1033A00043F001033371234612E02246394630468A
:1033B000FFF766FE0346E9E7012B01D0012307E092
:1033C0004FF0FF3304E0012302E0002300E000237C
:1033D0001846BDE8F081F8B50C46056801292ED9DC
:1033E000064611466B69A3422BD94AB14FF0FF3212
:1033F0002846FFF745FE074610B123E0A24221D937
:10340000274621463046FFF7C2FE0446E0B10128B8
:103410001CD0B0F1FF3F1BD0002239462846FFF7F1
:103420002FFE074670B92B696A69911E8B42E5D25F
:1034300001332B612B7943F001032B71DEE7022767
:1034400000E002273846F8BD0027FBE70227F9E72E
:103450000127F7E72DE9F04706684569C369002BA6
:103460006CD0044688462035B5F5001F68D2C5F3F8
:1034700008073FB90133C361816979B93389B3EB77
:10348000551F07D9656106F130033B4423620020D4
:10349000BDE8F0870023C3610420F9E77389013B8D
:1034A00013EA5529EED1FFF772FE8246012849D969
:1034B000B0F1FF3F48D07369834237D8B8F1000FAD
:1034C00011D0A1692046FFF720FF824600283DD099
:1034D00001283DD0B0F1FF3F3CD03046FFF7CFFB95
:1034E00028B10120D4E70023E3610420D0E74FF4A2
:1034F0000072002106F13000FFF7D6F95146304640
:10350000FFF7C6FAF062738999450BD20123F37075
:103510003046FFF7B4FBF8B909F10109F36A01334A
:10352000F362F0E7F36AA3EB0903F362C4F818A0AF
:1035300051463046FFF7ACFAE061A3E70420A7E765
:103540000420A5E70220A3E70120A1E707209FE7C9
:1035500002209DE701209BE7012099E770B5044612
:1035600006680021FFF77BFE054640B1284670BD86
:1035700000212046FFF76EFF05460028F6D1E169DD
:103580003046FFF7A6FB05460028EFD1206A0378F6
:103590007BB1C37A03F03F03A371C37A13F0080F22
:1035A000E6D10B2204F12401FFF783F90028DFD1D3
:1035B000DCE70425DAE730B583B0044601910568FD
:1035C00001E001330193019B1A782F2AF9D05C2A7C
:1035D000F7D00022A2601B781F2B1ED901A920461C
:1035E000FFF79AFA034600BB2046FFF7B7FF94F8AF
:1035F0002F200346E0B912F0040F16D1A37913F07F
:10360000100F1CD005F130036169C1F308011944A2
:103610002846FFF75AFAA060E0E7802384F82F30AD
:1036200011462046FFF71BFE0346184603B030BD87
:103630000428FAD112F0040FF7D10523F5E705238A
:10364000F3E7F8B504460E4607680021FFF707FECA
:103650000246C0B9002508E00135B54213D001216A
:103660002046FFF7F7FE024668B9E1693846FFF7E2
:1036700030FB024638B9236A1B78E52BECD0002BCF
:10368000EAD00025EBE7042A01D01046F8BD072256
:10369000FBE770B5044606680121FFF7D2FF054637
:1036A00008B1284670BDE1693046FFF712FB0546B8
:1036B0000028F6D120220021206AFFF7F5F80B221E
:1036C00004F12401206AFFF7E5F80123F370E8E72D
:1036D00070B50446FFF7D3FA054648B92378032BA3
:1036E00008D0002211466078FFF7AAF800B1012542
:1036F000284670BD2379012BF3D104F130064FF435
:10370000007200213046FFF7CFF84AF6552104F247
:103710002E20FFF7B1F80F493046FFF7B1F80E49F8
:1037200004F50570FFF7ACF8216904F50670FFF7A2
:10373000A7F8E16804F50770FFF7A2F8E269013223
:10374000E262012331466078FFF76EF800232371AF
:10375000C7E700BF525261417272416170B584B0D7
:10376000019000911646039103A8FFF73BFA041E4F
:103770001CDB104B53F8245025B12846FFF76AF99B
:1037800000232B70019B0BB100221A70019B094A88
:1037900042F8243063B1012E02D0002004B070BD85
:1037A000002201A96846FFF7EBFAF7E70B20F5E7DF
:1037B0000020F3E7C40100202DE9F04391B001910E
:1037C000002800F00A811546064602F03F073A46F7
:1037D00003A901A8FFF7D4FA044630B10CB10023C5
:1037E0003360204611B0BDE8F083039B0493019938
:1037F00004A8FFF7E0FE044660B99DF93F30002BB6
:1038000050DB37F0010314BF0121002104A8FFF7AA
:1038100065F8044615F01C0F5AD0002C4ED0042C2D
:1038200042D047F00807002C61D117F0080F5ED096
:10383000FDF7D4F8054601460C980E30FFF720F846
:1038400029460C981630FFF71BF80C9B2022DA72E1
:10385000DDF80C80DDF8309049464046FFF735F939
:103860000546002249464046FFF742F900210C98E0
:103870001C30FFF705F8039B0122DA70BDB3039BF0
:10388000D3F82C800022294604A8FFF7A4FD0446A3
:1038900068BB41460398FFF71CFA0446013D039BB1
:1038A000DD6024E00624B5E7FFF752F808B91224DA
:1038B000B7E704A8FFF7EDFE0446B2E79DF816301F
:1038C00013F0110F12D115F0040FACD008240EE044
:1038D0006CB99DF8163013F0100F4CD115F0020F93
:1038E00005D013F0010F02D0072416E00724A4B975
:1038F00017F0080F01D047F04007039BDB6A7362A3
:103900000C9BB36237F0010314BF0121002104A80E
:10391000FFF72EF8306100285DD0002C7FF45EAFF9
:10392000039DDDF8308041462846FFF7CEF8B060B1
:1039300008F11C00FEF795FFF0600021F162356090
:10394000EB88B380377571753162B16106F130086B
:103950004FF400724046FEF7A7FF17F0200F3FF428
:103960003DAFF568002D3FF439AFB561039B5F892A
:103970007F02B16805E00424CFE7B1F1FF3F0BD02F
:10398000ED1B5CB9BD4209D93046FFF700FC01468A
:103990000128F2D80224F0E70124F1E7F161002CBC
:1039A0007FF41CAFC5F30803002B3FF417AF039F50
:1039B0003846FFF76DF808B9022410E700EB5522EE
:1039C0003262012341467878FEF722FF00283FF457
:1039D00005AF012403E7022400E7092401E72DE9EC
:1039E000F04F85B004460E46154698460023C8F8A9
:1039F000003003A9FFF720F90190002849D1637D29
:103A00000193002B45D1237D13F0020F00F0E280DB
:103A1000A369EB42C0F0B080DD43ADE0E36A002B68
:103A20003BD02046FFF740F8002800F0CE80012868
:103A300038D0B0F1FF3F3CD0E061A36803B9A0608B
:103A400094F91430002B3BDBDDF80CB0E1695846EB
:103A5000FFF71EF88146002847D0B9444FEA552A9F
:103A6000B5F5007F5DD307EB0A03BBF80A2093424C
:103A700001D9A2EB070A53464A4631469BF801009A
:103A8000FEF7D2FEC0B34FF0010A84F815A0CDF8BE
:103A900004A0019805B0BDE8F08FE1692046FFF76A
:103AA00034FCC1E74FF0020A84F815A0CDF804A059
:103AB000EFE74FF0010A84F815A0CDF804A0E8E77D
:103AC0000123226A04F1300103984078FEF7ACFE2E
:103AD00020B9237D03F07F032375B5E74FF0010A7A
:103AE00084F815A0CDF804A0D3E74FF0020A84F8BB
:103AF00015A0CDF804A0CCE7216AA1EB090151453E
:103B000002D34FEA4A2728E04FF4007206EB412126
:103B100004F13000FEF7BEFE237D03F07F03237522
:103B2000EFE7236A4B4503D0A269E3689A423BD38F
:103B3000C4F82090A369C3F30803C3F50077BD421E
:103B400000D22F4604F130003A4631461844FEF7C1
:103B5000A1FE237D63F07F0323753E44A3693B44AC
:103B6000A361E268934238BF1346E360D8F800309F
:103B70003B44C8F80030ED1B3DB3A169C1F3080315
:103B8000002BD7D1039B5F89013F17EA51277FF4B0
:103B900057AF00297FF442AFA06800287FF444AFFC
:103BA0002046FFF7B2FB3FE701234A4604F130010C
:103BB0009BF80100FEF72CFE0028B9D04FF0010A57
:103BC00084F815A0CDF804A063E7237D43F04003FB
:103BD00023755EE7072301935BE770B582B0044667
:103BE00001A9FFF729F870B9237D13F0400F0AD01F
:103BF00013F0800F09D1FCF7F1FE0546616A0198C8
:103C0000FFF767F878B102B070BD0123226A04F1B2
:103C1000300101984078FEF707FE40BB237D03F09A
:103C20007F032375E7E7A66AF37A43F02003F37274
:103C3000A26831462068FEF75BFFE16806F11C00D0
:103C4000FEF71EFE294606F11600FEF719FE0021BA
:103C500006F11200FEF710FE019B0122DA700198B6
:103C6000FFF736FD237D23F040032375CBE70120CA
:103C7000C9E710B582B00446FFF7AFFF08B102B044
:103C800010BD01A92046FEF7D7FF0028F7D1206913
:103C9000FEF7C0FE0028F2D12060F0E72DE9F047E2
:103CA00088B0019088461446002207A901A8FFF7B2
:103CB00067F88146002859D1079B23601A695D691E
:103CC000A91E8A4202D8C8F800204FE01E78012EB3
:103CD00005D0D3F820A00024264627462FE00293E3
:103CE0000224002704E00134079B5B69A34235D915
:103CF000214602A8FFF74BFAB0F1FF3F2DD0012873
:103D000038D00028EFD10137EDE70AF1010651461E
:103D10000798FEF7DEFF814600BB079C3034B246B1
:103D20004FF400760DE02046FEF796FD00B901370E
:103D30000234023E01E00434043E013D0ED0002E68
:103D4000E3D0079B1B78022BEDD02046FEF789FDC0
:103D500030F07043EFD10137EDE7B146C8F800709D
:103D6000079B1F611A7942F001021A71484608B098
:103D7000BDE8F0874FF00209F0E70000134B5B7AD3
:103D800013BB10B5044603F0FF00104B93F809C0B5
:103D90005FFA8CFC4FF0000E03F80CE093F809C0BA
:103DA00003EB8C0CCCF804405C7A1C4422725A7AE7
:103DB000541CE4B25C7230320A703A234B702F23E9
:103DC0008B7081F803E010BD01207047EC010020EA
:103DD00008B50022FFF7D2FF08BD0000DFF834D09D
:103DE0000D480E490E4A002302E0D458C450043353
:103DF000C4188C42F9D30B4A0B4C002301E013602A
:103E00000432A242FBD3FEF7D9FC00F011F8FCF714
:103E100093FC70470000022000000020700000208A
:103E2000384A0008700000200C020020FEE7000065
:103E300070B50D4D0D4C641BA4100026A64209D18F
:103E40000B4D0C4C00F0B6FC641BA4100026A642DF
:103E500005D170BD55F8043B98470136EEE755F89B
:103E6000043B98470136F2E7304A0008304A000820
:103E7000304A0008344A000802440346934200D105
:103E8000704703F8011BF9E730B51446002C9BB0CE
:103E900005461A4605DA8B2303604FF0FF301BB04E
:103EA00030BD4FF40273ADF80C3014BF04F1FF3392
:103EB0002346029305934FF6FF7300910491ADF8EA
:103EC0000E3069461E9B00F075F8431CBCBF8B2367
:103ED0002B60002CE3D0009B00221A70DFE700006B
:103EE00007B5009313460A46014603480068FFF7EA
:103EF000CBFF03B05DF804FB0C0000202DE9F04778
:103F00008E689E4282460C4690461F4638D88A8963
:103F100012F4906F32D025680969A5EB0109656933
:103F200005EB450505EBD57501334B446D109D42FE
:103F300038BF1D46530531D5294600F063FB0646C0
:103F400050B90C23CAF80030A38943F04003A38181
:103F50004FF0FF30BDE8F08721694A4600F0BEFA15
:103F6000A38923F4906343F08003A38126616561F4
:103F70004E44A5EB09052660A5603E46BE4200D929
:103F80003E4620683246414600F0B6FAA3689B1BC5
:103F9000A3602368334423600020DBE72A4600F057
:103FA000A5FB06460028E1D12169504600F0BEFA83
:103FB000C7E700002DE9F04F98468B891B069DB09E
:103FC00007460D4614460ED50B6963B9402100F033
:103FD00019FB2860286120B90C233B604FF0FF30AB
:103FE000D1E040236B610023099320238DF8293011
:103FF000CDF80C803023DFF8A8818DF82A304FF0FF
:10400000010923469A4613F8012B0AB1252AF9D152
:10401000BAEB040B0BD05B46224629463846FFF725
:104020006DFF013000F0AA80099A5A4409929AF86B
:104030000030002B00F0A28000234FF0FF32CDE9CA
:1040400005230AF1010A049307938DF853301A935C
:104050005446052214F8011B5148FCF7C1F8049A94
:10406000D8B9D00644BF20238DF85330110744BF80
:104070002B238DF853309AF800302A2B15D0079A4D
:10408000544600204FF00A0C214611F8013B303B0A
:10409000092B4ED9B0B1079214E0A0EB080309FA3E
:1040A00003F313430493A246D2E7039B191D1B6835
:1040B0000391002BBBBF5B4242F0020207930793C0
:1040C000B8BF049223782E2B0CD163782A2B35D1DC
:1040D000039B1A1D1B680392002BB8BF4FF0FF33E0
:1040E00002340593DFF8C8A0217803225046FCF77C
:1040F00077F840B14023A0EB0A0003FA00F0049BDC
:1041000003430134049314F8011B26488DF828104A
:104110000622FCF765F8002838D0234B1BBB039B15
:10412000073323F0070308330393099B33440993B0
:1041300067E70CFB02320C460120A5E7002301349F
:10414000059319464FF00A0C204610F8012B303A1F
:10415000092A03D9002BC5D00591C3E70CFB012127
:1041600004460123F0E703AB00932A460F4B04A952
:104170003846AFF30080421C0646D6D1AB895B06B9
:104180003FF52CAF09981DB0BDE8F08F03AB00934D
:104190002A46064B04A9384600F07AF8EBE700BF40
:1041A000F4490008FE49000800000000FD3E000838
:1041B000FA4900082DE9F047164699468A680B69C6
:1041C000DDF820809342B8BF1346336091F8432056
:1041D00007460C460AB1013333602368990642BF93
:1041E000336802333360256815F0060506D104F103
:1041F000190AE36832689B1AAB4226DC94F8432024
:10420000131E226818BF012392062BD404F1430227
:1042100049463846C04701301ED02368E5683268F9
:1042200003F00603042B08BFAD1AA36822690CBF74
:1042300025EAE57500259342C4BF9B1AED180026B8
:104240001A34B5421AD1002008E0012352464946EB
:104250003846C047013003D14FF0FF30BDE8F0874A
:104260000135C6E7E1185A1C302081F8430022448A
:1042700094F8451082F843100233C7E70123224621
:1042800049463846C0470130E6D00136D9E700003C
:104290002DE9FF470F7E0C9D782F914680460C46F6
:1042A0009A4601F1430207D8622F0AD8002F00F086
:1042B000D880582F00F0A38004F1420584F84270A2
:1042C0003AE0A7F16303152BF6D801A151F823F0CA
:1042D000294300083D430008B9420008B9420008DC
:1042E000B9420008B94200083D430008B94200083D
:1042F000B9420008B9420008B94200084944000820
:104300006D4300082B440008B9420008B942000878
:104310006B440008B94200086D430008B942000828
:10432000B9420008334400082B681A1D1B682A6034
:1043300004F1420584F842300123A3E02068296893
:10434000060601F104030AD50E682B60002E03DA7D
:104350002D23764284F843305E480A2319E00E6824
:104360002B6010F0400F18BF36B2EFE72B682068C3
:10437000191D2960010601D51E6802E04606FBD51D
:104380001E8854486F2F0CBF08230A23002184F88D
:1043900043106568A560002DA2BF216821F00401CB
:1043A00021600EB9002D4DD01546B6FBF3F103FB8D
:1043B0001167C75D05F8017D3746BB420E46F4D94B
:1043C000082B0BD12368DE0708D523696168994261
:1043D000DEBF302305F8013C05F1FF35521B226199
:1043E000CDF800A04B4603AA21464046FFF7E2FE67
:1043F00001304CD14FF0FF3004B0BDE8F0873548B4
:1044000081F845702968236851F8046B29601D06FE
:1044100014D5DF0744BF43F0200323601EB923688F
:1044200023F0200323601023B0E7236843F0200328
:1044300023607823284884F84530E3E7590648BFCD
:10444000B6B2E6E71546BBE72B6826686169181D1A
:10445000286035061B6801D5196002E07006FBD59F
:104460001980002323611546BAE72B681A1D2A60BC
:104470001D68626800212846FBF7B2FE08B1401BA8
:10448000606063682361002384F84330A8E72369F0
:104490002A4649464046D0470130ABD023689B07A7
:1044A00013D4E068039B9842B8BF1846A4E70123E1
:1044B000324649464046D04701309BD00135E3683B
:1044C00003995B1AAB42F2DCEBE7002504F1190615
:1044D000F5E700BF054A0008164A00080A44914261
:1044E00000F1FF3300D1704710B511F8014B03F80C
:1044F000014F9142F9D110BD884210B501EB020481
:1045000002D98442234607D8431EA14208D011F89D
:10451000012B03F8012FF8E7024401468A4200D13B
:1045200010BD13F8014D02F8014DF7E737B500292A
:1045300044D051F8043C0190002BA1F10404B8BF11
:10454000E41800F013F91E4A0198136833B9636048
:10455000146003B0BDE8304000F00EB9A34208D9A2
:10456000256861198B4201BF19685B684919216090
:10457000EDE71A465B680BB1A342FAD911685518EA
:10458000A5420BD1246821445418A3421160E0D104
:104590001C685B68536021441160DAE702D90C2380
:1045A0000360D6E7256861198B4204BF19685B6810
:1045B000636004BF491921605460CAE703B030BD8D
:1045C000F801002070B50E4E0C463168054611B951
:1045D00000F0BCF830602146284600F0B7F8431CD4
:1045E0000AD0C41C24F00304A04207D0211A284694
:1045F00000F0ACF8013001D14FF0FF34204670BD1F
:10460000FC0100202DE9F041CD1C25F00305083503
:104610000C2D38BF0C25002D074601DBA94205D91A
:104620000C233B6000263046BDE8F0812E4E00F0A2
:104630009DF833681C4634BB29463846FFF7C2FF55
:10464000431C04464DD134682646002E40D12368D1
:104650003146384604EB030800F078F880453AD13B
:10466000216803356D1A25F0030508350C2D38BF78
:104670000C2529463846FFF7A5FF01302BD02368CB
:104680002B4423600EE02268521B1ED40B2A16D93D
:104690006119A342256018BF5960636808BF316083
:1046A00062514B60384604F10B0600F065F826F0C5
:1046B0000706231DF21AB6D09B1BA350B3E762680E
:1046C000A3420CBF32605A60ECE723466468B2E74D
:1046D00034467668B9E70C233B60384600F04CF866
:1046E000A1E72560DEE700BFF80100202DE9F041D9
:1046F000804614460E4621B9BDE8F0411146FFF749
:1047000081BF2AB9FFF712FF25462846BDE8F08190
:1047100000F038F88442074602D8B4EB500F12D8A4
:1047200021464046FFF76EFF05460028EDD0BC420B
:104730002246314628BF3A46FFF7D0FE3146404672
:10474000FFF7F4FEE1E73546DFE7000038B5064D38
:104750000023044608462B6000F01EF8431C02D1DB
:104760002B6803B1236038BD00020020014800F02F
:1047700011B800BF04020020014800F00CB800BFCF
:104780000402002051F8043C181F002BBCBF0B583A
:10479000C018704770477047044A05491368002BDA
:1047A00008BF0B46184410601846704708020020E6
:1047B00010020020F8B500BFF8BC08BC9E46704748
:0C47C000F8B500BFF8BC08BC9E4670476E
:1047CC000D0A0D0A28506F776572696E6720757037
:1047DC00290D0A4D617279206861642061206C6931
:1047EC0074746C65206C616D62202D2D0D0A49204E
:1047FC006174652069742077697468206D696E74C2
:10480C002073617563652E0D0A0D0A00665F6D6F6E
:10481C00756E74206572726F7220282569290D0AD5
:10482C0000000000665F67657466726565206572DE
:10483C00726F7220282569290D0A000053442063E9
:10484C006172642073746174733A0D0A2531306C93
:10485C0075204B694220746F74616C2064726976A8
:10486C00652073706163652E0D0A2531306C7520DF
:10487C004B694220617661696C61626C652E0D0A30
:10488C000000000077726974652E74787400000063
:10489C0049207761732061626C6520746F206F70A2
:1048AC00656E202777726974652E7478742720667C
:1048BC006F722077726974696E670D0A00000000D0
:1048CC00665F6F70656E206572726F722028256945
:1048DC00290D0A0053442074657374207769746839
:1048EC00205344494F20496E7465726661636500BC
:1048FC0057726F7465202569206279746573207412
:10490C006F202777726974652E74787427210D0ACD
:10491C0000000000665F7772697465206572726FC3
:10492C007220282569290D0A00000000950A00084C
:10493C00BD0A0008C50A0008E90A00080D0B0008AA
:10494C000000000000000000010203040607080933
:10495C000000000001020304222A2B2C3A3B3C3DB0
:10496C003E3F5B5D7C7F00004355454141414143E7
:10497C0045454549494941414592924F4F4F5555FF
:10498C00594F554F9C4F9E9F41494F55A5A5A6A7E2
:10499C00A8A9AAABACADAEAFB0B1B2B3B441414172
:1049AC00B8B9BABBBCBDBEBFC0C1C2C3C4C541410E
:1049BC00C8C9CACBCCCDCECFD1D145454549494943
:1049CC0049D9DADBDCDD49DF4FE14F4F4F4FE6E8E9
:1049DC00E85555555959EEEFF0F1F2F3F4F5F6F7B9
:1049EC00F8F9FAFBFCFDFEFF232D302B2000686C40
:1049FC004C006566674546470030313233343536F6
:104A0C00373839414243444546003031323334352E
:0C4A1C003637383961626364656600005B
:084A280088B8FF7F01000000C7
:044A3000B5010008C4
:044A340091010008E4
:104A380001010000100000000024F4001000002014
:104A4800000000000000000000000000000000005E
:104A5800000000000000000000000000000000004E
:104A6800000000000000000000000000000000003E
:104A7800000000000000000000000000000000002E
:104A8800000000000000000000000000000000001E
:104A9800000000000000000000000000000000000E
:0400000508003DDDD5
:00000001FF
